:100000000C9462000C948A000C948A000C948A0070
:100010000C948A000C948A000C948A000C948A0038
:100020000C948A000C948A000C948A000C948A0028
:100030000C948A000C948A000C948A000C948A0018
:100040000C944F020C948A000C948A000C948A0041
:100050000C948A000C948A000C948A000C948A00F8
:100060000C948A000C948A000000000024002700F1
:100070002A0000000000250028002B0000000000DE
:1000800023002600290004040404040404040202DA
:100090000202020203030303030301020408102007
:1000A0004080010204081020010204081020000012
:1000B0000008000201000003040700000000000027
:1000C00000004E0311241FBECFEFD8E0DEBFCDBF2E
:1000D00011E0A0E0B1E0ECE3F8E002C005900D9281
:1000E000AC33B107D9F721E0ACE3B1E001C01D9218
:1000F000AD35B207E1F710E0C2E6D0E004C02197C9
:10010000FE010E941604C136D107C9F70E94990268
:100110000C941C040C940000AF92BF92CF92DF921B
:10012000EF92FF920F931F93CF93DF936C017B01AC
:100130008B01040F151FEB015E01AE18BF08C0173D
:10014000D10759F06991D601ED91FC910190F081B0
:10015000E02DC6010995892B79F7C501DF91CF9173
:100160001F910F91FF90EF90DF90CF90BF90AF90D5
:100170000895833081F028F4813099F08230A9F01D
:1001800008958730A9F08830C9F08430B1F48091A7
:1001900080008F7D03C0809180008F7780938000E6
:1001A000089584B58F7784BD089584B58F7DFBCF86
:1001B0008091B0008F778093B00008958091B00057
:1001C0008F7DF9CFCF93DF93282F30E0F901E255EF
:1001D000FF4F8491F901E656FF4FD491F901EA5798
:1001E000FF4FC491CC23A1F081110E94B900EC2FE4
:1001F000F0E0EE0FFF1FE458FF4FA591B491EC9192
:10020000ED2381E090E009F480E0DF91CF91089543
:1002100080E090E0FACF1F93CF93DF93282F30E058
:10022000F901E255FF4F8491F901E656FF4FD49151
:10023000F901EA57FF4FC491CC23A9F0162F811181
:100240000E94B900EC2FF0E0EE0FFF1FEE58FF4FB9
:10025000A591B4918FB7F894EC91111108C0D09585
:10026000DE23DC938FBFDF91CF911F910895DE2BAA
:10027000F8CFCF93DF9390E0FC01E656FF4F249137
:100280008A579F4FFC0184918823D1F090E0880F1A
:10029000991FFC01E859FF4FA591B491FC01EE585C
:1002A000FF4FC591D491623071F49FB7F8943C919F
:1002B000822F809583238C93E8812E2B28839FBFE8
:1002C000DF91CF9108958FB7F894EC912E2B2C935A
:1002D0008FBFF6CF3FB7F8948091410190914201D2
:1002E000A0914301B091440126B5A89B05C02F3FC2
:1002F00019F00196A11DB11D3FBFBA2FA92F982F4C
:100300008827BC01CD01620F711D811D911D42E046
:10031000660F771F881F991F4A95D1F70895089592
:1003200090E080E00895FC0101900020E9F731970A
:10033000AF01481B590BBC0185E491E00C948C0083
:10034000CF93DF93EC0160E08E810E940B0161E0AE
:100350008E810E940B0160E08E810E940B018BE870
:1003600091E00197F1F7DF91CF910895CF92DF925D
:10037000EF92FF920F931F93CF93DF936C017C0159
:1003800087E0E80EF11CD0E0C0E0062F10E0B801D5
:100390000C2E02C0759567950A94E2F76170F7011B
:1003A00081917F010E940B012196C430D10579F71C
:1003B000C601DF91CF911F910F91FF90EF90DF90D9
:1003C000CF900C94A001CF92DF92EF92FF920F9307
:1003D0001F93CF93DF93EC01F62E642F8C810E9444
:1003E0000B018D818F3F19F060E00E940B010F2DF2
:1003F00010E08F8584FF25C06E0187E0C80ED11CF8
:10040000F12CE12CB8010E2C02C0759567950A9469
:10041000E2F76170F60181916F010E940B01FFEF1D
:10042000EF1AFF0A88E0E816F10461F7CE01DF91C8
:10043000CF911F910F91FF90EF90DF90CF900C9490
:10044000A001B80184E0759567958A95E1F7CE0122
:100450000E94B6016F2DCE01DF91CF911F910F91B8
:10046000FF90EF90DF90CF900C94B60140E0682FA2
:1004700085E491E00C94E301E1E080915801811161
:10048000E0E0E195F0E0EB5BFE4F848980680C943E
:10049000360241E00E94E30181E090E008951F925E
:1004A0000F920FB60F9211242F933F938F939F9328
:1004B000AF93BF9380913D0190913E01A0913F0188
:1004C000B091400130913C0123E0230F2D3758F5C6
:1004D0000196A11DB11D20933C0180933D01909395
:1004E0003E01A0933F01B093400180914101909162
:1004F0004201A0914301B09144010196A11DB11D9B
:100500008093410190934201A0934301B093440131
:10051000BF91AF919F918F913F912F910F900FBEFF
:100520000F901F90189526E8230F0296A11DB11D6C
:10053000D2CF789484B5826084BD84B5816084BD57
:1005400085B5826085BD85B5816085BD80916E0071
:10055000816080936E0010928100809181008260A2
:1005600080938100809181008160809381008091DF
:1005700080008160809380008091B10084608093CE
:10058000B1008091B00081608093B00080917A00CA
:10059000846080937A0080917A00826080937A00F0
:1005A00080917A00816080937A0080917A008068DF
:1005B00080937A001092C10062E089E00E943901C4
:1005C00062E088E00E943901CBE3DFE100E010E067
:1005D0008AE00E94E200019771F40E943C028CE0E4
:1005E00091E00E94930161E087E00E940B0160E0CE
:1005F00086E00E940B0188E00E94E200019709F06A
:1006000040C00E943C0289E191E00E94930161E0B8
:1006100087E00E940B0160E086E00E940B010E94CF
:100620006A014B015C018CE2C82EDD24D394E12CDD
:10063000F12C0E946A01681979098A099B09683EB0
:10064000734081059105A8F321E0C21AD108E108A1
:10065000F10888EE880E83E0981EA11CB11CC1141D
:10066000D104E104F10429F781E00E943602CE01B1
:100670000197F1F70115110509F4AACF0E940000B6
:10068000A7CF0E943C028AE291E00E94930161E0C0
:1006900086E00E940B0160E087E0BFCFCF93DF933D
:1006A000109248011092470184E091E09093460136
:1006B000809345018CE0809349018FEF80934A013C
:1006C0008BE080934B0185E080934C0184E0809324
:1006D0004D0183E080934E0182E080934F011092A0
:1006E0005001109251011092520110925301109238
:1006F000540181E0809358011092590180E4809365
:100700005A0180E180935B0180E580935C0161E0A8
:100710008CE00E94390180914A018F3F19F061E01D
:100720000E94390161E080914B010E943901C5E4CA
:10073000D1E09E01255431408091540184FD0BC0CD
:1007400084E090E021962817390744F461E08E8117
:100750000E943901EECF88E090E0F4CF8BE39DE07A
:100760000197F1F760E0809149010E940B0160E080
:1007700080914B010E940B0180914A018F3F19F03B
:1007800060E00E940B018091540184FD39C063E058
:1007900085E491E00E94B601CBE4D6E4CE01019756
:1007A000F1F763E085E491E00E94B6012197F1F74B
:1007B00063E085E491E00E94B60183E592E0019751
:1007C000F1F762E085E491E00E94B6018091540166
:1007D00080620E94360284E0809355018CE00E9482
:1007E000360281E00E9436028BE39FE10197F1F728
:1007F00082E08093560186E0DF91CF910C9436021F
:1008000080620E9436028BE496E40197F1F78091B2
:10081000540180620E94360283E592E00197F1F76D
:100820008091540180620E943602D0CFEE0FFF1FEC
:0C0830000590F491E02D0994F894FFCF9E
:10083C000000000049028C0090018F01466F6F642C
:10084C002053706F696C656400466F726D616C69E2
:10085C006E4465746563746564004E6F7468696E8C
:0C086C00672044657465637465640000D7
:00000001FF
